:020000040800F2
:1000000000280020811700089D160008A51600088A
:10001000AD160008B5160008BD1600080000000067
:10002000000000000000000000000000C5160008ED
:10003000D116000800000000DD160008E9160008CF
:10004000C9170008C9170008C9170008C917000810
:10005000C9170008C9170008C9170008C917000800
:10006000C9170008C9170008C9170008C9170008F0
:10007000C9170008C9170008C9170008C9170008E0
:10008000C9170008C9170008C9170008C9170008D0
:10009000C9170008C9170008C9170008C9170008C0
:1000A000C9170008C9170008C9170008C9170008B0
:1000B000F5160008C917000800000000C91700085D
:1000C000C91700080000000000000000C917000860
:1000D00000000000C9170008C91700080000000050
:1000E000C9170008C9170008C91700080000000058
:1000F0000000000000000000000000000000000000
:0C01000000000000000000005FF808F1A3
:10010C0010B5054C237833B9044B13B10448AFF345
:10011C0000800123237010BD8C0000200000000023
:10012C005837000808B5034B1BB103490348AFF31C
:10013C00008008BD00000000900000205837000827
:10014C0010F8012B11F8013B012A28BF9A42F7D075
:10015C00D01A704780B483B000AF7860044A7B68D3
:10016C00012142F8231000BF0C37BD4680BC7047FC
:10017C00A800002080B483B000AF00237B6010E0A7
:10018C000C4A7B6852F82330002B07D0094A7B6855
:10019C00002142F823107B68013306E07B680133B1
:1001AC007B607B68042BEBDD002318460C37BD46C7
:1001BC0080BC7047A800002080B582B000AF564BC1
:1001CC001B68564A1360564B1B68534A13604FF416
:1001DC000051544801F004FE03461A46504B1A6075
:1001EC004D4B5B684D4A53604D4B5B684A4A5360BC
:1001FC004FF400514C4801F0F3FD03461A46484BAE
:10020C005A60454B9B68454A9360454B9B68424AF4
:10021C0093604FF48041444801F0E2FD03461A46D6
:10022C003F4B9A603C4BDB683C4AD3603C4BDB68F1
:10023C00394AD3604FF480413C4801F0D1FD03466C
:10024C001A46374BDA60344B1B69344A1361344B12
:10025C001B69314A13614FF40041344801F0C0FD71
:10026C0003461A462E4B1A6100237B604CE02B4A46
:10027C007B6852F8232028497B6851F823309A4236
:10028C003FD1254A7B6852F8232025497B6851F8D9
:10029C0023309A4235D1264A7B6852F823202049D4
:1002AC007B6851F823309A4216D01D4A7B6852F86D
:1002BC0023201F497B6841F823201D4A7B6852F894
:1002CC002330002B1DD17868FFF744FF194A7B6857
:1002DC00C82142F8231014E0154A7B6852F82330E9
:1002EC00002B0ED1134A7B6852F82330002B08DD0B
:1002FC00104A7B6852F823305A1E0E497B6841F82D
:10030C0023207B6801337B607B68042BAFDD00BF4F
:10031C0000BF0837BD4680BDD0000020BC000020C7
:10032C00E40000200010014000080140000C0140D6
:10033C0000000020F800002080B500AFFFF73CFF64
:10034C0000F01CFA00BF80BD80B584B000AF7860AF
:10035C0039607B68002B01D10E4B00E00E4BFB602B
:10036C003968F868FFF7ECFE0346002B0DD03968AE
:10037C00F86802F089FD7B68DBB20021184600F0BA
:10038C00CEFD386800F0B6FD00E000BF1037BD466A
:10039C0080BD00BF540100206801002080B58EB0E4
:1003AC0002AF78603960214B1B68002B07D01F4BC4
:1003BC001B68012B01D1522302E0472300E04F239D
:1003CC0087F82F301A4B1B68002B07D0184B1B6873
:1003DC00012B01D1522302E0472300E04F2387F881
:1003EC002E3097F82F2097F82E3007F11C00009331
:1003FC001346104A112102F0DDFC07F108003B689E
:10040C0000937B680C4A112102F0D4FC07F11C0309
:10041C0019460020FFF798FF07F108031946012041
:10042C00FFF792FF00BF3037BD4680BD3001002082
:10043C0040010020703700088437000880B590B068
:10044C0002AF786039607B68022B08D07B68032B85
:10045C0002D1214B1B6804E0204B1B6801E0204BB0
:10046C001B687B637B68022B07D107F120031D4AB5
:10047C001121184602F09EFC14E07B68032B07D177
:10048C0007F12003184A1121184602F093FC09E0E9
:10049C007B68042B06D107F12003144A112118465E
:1004AC0002F088FC07F10C007B6B00933B68104A50
:1004BC00112102F07FFC07F1200319460020FFF701
:1004CC0043FF07F10C0319460120FFF73DFF00BF66
:1004DC003837BD4680BD00BF240000202800002016
:1004EC002000002098370008A8370008B83700080B
:1004FC00C837000880B584B000AFF860B9607A6086
:10050C003B60FB68002B0CBF01230023DBB21A46B7
:10051C0004211F4801F07BFCBB68002B0CBF01239E
:10052C000023DBB21A460221194801F070FC7B68EB
:10053C00002B0CBF01230023DBB21A460121144807
:10054C0001F065FC3B68002B0CBF01230023DBB2E0
:10055C001A4620210E4801F05AFCBB69002B0CBF37
:10056C0001230023DBB21A461021094801F04FFC8D
:10057C00FB69002B0CBF01230023DBB21A460821B8
:10058C00034801F044FC00BF1037BD4680BD00BFDE
:10059C000008014080B586B002AFF860B9607A609F
:1005AC003B60084AFB6813603B6A0193FB6900934C
:1005BC00BB693A687968B868FFF79CFF00BF1037D1
:1005CC00BD4680BD0C01002080B582B000AF7860C4
:1005DC0039607B68002B0CBF01230023DBB21A4669
:1005EC004FF48061094801F012FC3B68002B0CBFF2
:1005FC0001230023DBB21A464FF40061034801F0DB
:10060C0006FC00BF0837BD4680BD00BF0008014096
:10061C0080B582B000AF786039607B68002B0CBF6E
:10062C0001230023DBB21A464FF48051094801F034
:10063C00EEFB3B68002B0CBF01230023DBB21A46F8
:10064C004FF40041034801F0E2FB00BF0837BD4600
:10065C0080BD00BF0008014080B500AF254B1B6872
:10066C00002B06D1244B1B68002B02D1234B0022FC
:10067C001A60234B1B68002B06D1224B1B68002BE6
:10068C0002D1214B00221A601C4B1B68002B04D199
:10069C0000210020FFF798FF10E0184B1B68012B7E
:1006AC0004D100210120FFF78FFF07E0134B1B68DB
:1006BC00022B03D101210020FFF786FF124B1B6890
:1006CC00002B04D100210020FFF7A2FF10E00E4BFD
:1006DC001B68012B04D100210120FFF799FF07E0D3
:1006EC00094B1B68022B03D101210020FFF790FF5F
:1006FC0000BF80BD28010020240100203001002013
:10070C0038010020340100204001002080B500AFEA
:10071C00124B00221A60114B1B68114A1360114BCB
:10072C0000221A600F4B1B680F4A13600F4B0022FC
:10073C001A600E4B1B680E4A13600E4B00221A6097
:10074C000C4B1B680C4A136000210020FFF73CFF88
:10075C0000210020FFF75CFF00BF80BD34010020AA
:10076C002401002038010020280100203C01002039
:10077C002C010020400100203001002080B584B005
:10078C0002AFFFF7F7FC78607B68002B00F0AC80C1
:10079C007B68013B042B00F2A98001A252F823F0E4
:1007AC00C10700084D08000887080008E508000884
:1007BC00ED080008504B1B6801335A4203F0030349
:1007CC0002F0030258BF53424B4A13604A4B1B685A
:1007DC0001334A4A13604A4B00221A60474B1B688C
:1007EC00012B14BF01230023DBB21A46454B1A60C0
:1007FC0000F0B1FB444B00221A70444B00221A70DB
:10080C003E4B1B68012B12D0002301930023009355
:10081C000023002200210020FFF76CFE374B1B68E1
:10082C00374A126811461846FFF708FE61E0384B4C
:10083C001B68384A126811461846FFF7AFFD58E09E
:10084C00304B1B68002B04D02D4B1B6801332C4AFA
:10085C0013602B4B1B68632B02DD294B00221A60A3
:10086C00264B1B68012B43D0244B1B68244A12686F
:10087C0011461846FFF7E2FD3AE0204B1B68042BAB
:10088C0010D0042B1CDC022B02D0032B05D017E05C
:10089C001B4B1B68204A136012E0194B1B681F4A44
:1008AC0013600DE01D4B1A68154B1B681A441A4B4C
:1008BC001B689A4203D1124B1B68194A136000BF84
:1008CC000F4B00221A600D4B1B680D4A1268114623
:1008DC001846FFF7B3FD0CE0124B01221A6008E03A
:1008EC00114B01221A6004E000BF02E000BF00E0DF
:1008FC0000BF0837BD4680BD180100201400002041
:10090C00140100201C01002054010020680100206B
:10091C00180000201C0000202000002024000020D3
:10092C0028000020240100203401002080B584B070
:10093C0004AF904B1A68904B1B689A4208D08D4BB1
:10094C001B688E4A13608C4B1B688A4A136003E049
:10095C00884B1B68894A1360894B1B68894A12684B
:10096C0011461846FFF71AFD854B1B68002B04DD5A
:10097C00834B1B68013B824A1360824B1B68002B24
:10098C0004DD804B1B68013B7E4A1360794B1B686E
:10099C00032B73D801A252F823F000BFB909000849
:1009AC00E9090008210A0008510A000801230293F2
:1009BC000023019300230093002300220121002037
:1009CC00FFF7E8FD6F4B1B68002B59DC6E4B1B6867
:1009DC006C4A1360684B01221A6051E000230293A9
:1009EC000123019300230093002300220121012005
:1009FC00FFF7D0FD634B1B68002B43DC634B1B687C
:100A0C005F4A1360624B1B685E4A13605A4B0222AA
:100A1C001A6037E000230293002301930123009313
:100A2C000123002200210220FFF7B4FD544B1B6868
:100A3C00002B29DC544B1B68514A13604E4B03228C
:100A4C001A6021E0002302930023019301230093F9
:100A5C000023012200210320FFF79CFD484B1B685B
:100A6C00002B13DC4A4B1B68454A1360474B1B6831
:100A7C00444A1360404B00221A6007E000BF06E0B6
:100A8C0000BF04E000BF02E000BF00E000BF394B34
:100A9C001B68002B05D1394B1B68002B01D001239F
:100AAC0000E000233B4A1360324B1B68022B05D13C
:100ABC00324B1B68022B01D0012300E00023364A85
:100ACC0013602C4B1B68022B05D12C4B1B68022B83
:100ADC0001D0012300E00023304A1360254B1B6832
:100AEC00002B05D1254B1B68002B01D0012300E006
:100AFC0000232B4A13602B4B1B68002B0FD02A4B67
:100B0C001B68002B0BD1284B01221A60274B0022AB
:100B1C001A60274B01221A60224B00221A60224BCA
:100B2C001B68002B0AD0224B1B68012B06D1194BDA
:100B3C001B68002B02D01E4B02221A601A4B1B683A
:100B4C00002B3AD01A4B1B68022B36D1124B1B6868
:100B5C00002B32D0154B1B680133144A1360134B16
:100B6C001B68022B26DD104B00221A60104B002252
:100B7C001A6022E00C010020200100202C00002033
:100B8C00180000201C000020240000202800002059
:100B9C002000002044010020480100204C010020CE
:100BAC005001002024010020280100202C010020ED
:100BBC00300100202A4B01221A602A4B1B68002BA3
:100BCC000FD0294B1B68002B0BD1274B01221A602D
:100BDC00264B00221A60264B01221A60214B002260
:100BEC001A60214B1B68002B0AD0214B1B68012B70
:100BFC0006D1204B1B68002B02D01D4B02221A6021
:100C0C00194B1B68002B1AD0194B1B68022B16D1E1
:100C1C00194B1B68002B12D0144B1B680133134A61
:100C2C001360124B1B68022B06DD0F4B00221A605F
:100C3C000F4B00221A6002E00D4B01221A60FFF7E5
:100C4C000BFD0E4B00221A600D4B00221A60094B53
:100C5C0000221A60084B00221A6000BFBD4680BDFE
:100C6C003001002034010020380100203C0100201C
:100C7C00400100204C0100205001002044010020C4
:100C8C004801002080B584B000AFF860B9607A608C
:100C9C00334B1B68002B0CBF01230023DBB21A461D
:100CAC002F4B1A60FB68002B17D02D4B1B68002BA9
:100CBC000CBF01230023DBB21A460421294801F0A2
:100CCC00A6F8274B1B68002B0CBF01230023DBB2BB
:100CDC001A462021234801F09AF8BB68002B17D044
:100CEC001F4B1B68002B0CBF01230023DBB21A46E1
:100CFC0002211C4801F08BF8194B1B68002B0CBF10
:100D0C0001230023DBB21A461021164801F07FF8AC
:100D1C007B68002B17D0124B1B68002B0CBF0123D8
:100D2C000023DBB21A4601210E4801F070F80C4B7F
:100D3C001B68002B0CBF01230023DBB21A460821D1
:100D4C00084801F064F8084B1B68084A1268114601
:100D5C001846FFF773FB00BF1037BD4680BD00BFC0
:100D6C001001002000080140140000201401002094
:100D7C0080B500AFFFF702FD034B1B68012B01D1BF
:100D8C00FFF7D4FD00BF80BD1400002080B500AF7C
:100D9C000F4B1B68042B12D0042B16DC022B02D039
:100DAC00032B06D011E0002200210120FFF76AFF7F
:100DBC000CE0002201210020FFF764FF06E0012275
:100DCC0000210020FFF75EFF00E000BF00BF80BDE8
:100DDC001400002080B500AF01220221074801F069
:100DEC0016F8012000F04EFD00220221034801F00C
:100DFC000EF8012000F046FD00BF80BD000C014044
:100E0C0080B582B000AF0346FB71FB7903F00103A0
:100E1C00DBB21A460421144800F0F9FFFB795B0899
:100E2C00DBB203F00103DBB21A4608210E4800F0D6
:100E3C00EEFFFB799B08DBB203F00103DBB21A4631
:100E4C001021094800F0E3FFFB79DB08DBB203F06B
:100E5C000103DBB21A462021034800F0D8FF00BF83
:100E6C000837BD4680BD00BF000C014080B582B084
:100E7C0000AF0346FB71002201210C4800F0C7FFB4
:100E8C00FB791B09DBB21846FFF7BAFFFFF7A2FF8D
:100E9C00FB7903F00F03DBB21846FFF7B1FFFFF746
:100EAC0099FF00BF0837BD4680BD00BF000C014054
:100EBC0080B582B000AF0346FB71012201210C48C2
:100ECC0000F0A5FFFB791B09DBB21846FFF798FF72
:100EDC00FFF780FFFB7903F00F03DBB21846FFF737
:100EEC008FFFFFF777FF00BF0837BD4680BD00BFFF
:100EFC00000C014080B582B000AF786006E07B68E2
:100F0C005A1C7A601B781846FFF7D2FF7B681B7857
:100F1C00002BF4D100BF00BF0837BD4680BD80B5A3
:100F2C0084B000AF03460A46FB711346BB71FB79D4
:100F3C00002B03D0BB794033DBB200E0BB79FB73F1
:100F4C00FB7B63F07F03DBB21846FFF78FFF00BF1C
:100F5C001037BD4680BD80B500AF0120FFF786FF7E
:100F6C00032000F08FFC00BF80BD80B500AF2820AF
:100F7C0000F088FC0320FFF743FFFFF72BFF032053
:100F8C00FFF73EFFFFF726FF0320FFF739FFFFF7C0
:100F9C0021FF0220FFF734FFFFF71CFF2820FFF78B
:100FAC0065FF0C20FFF762FF0620FFF75FFFFFF7DE
:100FBC00D2FF00BF80BD000080B584B004AF00F04C
:100FCC00FFFB00F041F800F0C7F800F079F8194881
:100FDC0001F064FB00F072F9FFF7C7FFFFF7BBFFEE
:100FEC001548FFF787FF4FF42F7000F04BFCFFF70D
:100FFC00B2FFFFF78BFB01220021104800F05EFAD4
:10100C00642200210E4800F059FA3222FA210D48D0
:10101C0000F054FA01230293002301930023009360
:10102C000023002201210020FFF7B4FA00F002FA9D
:10103C00FCE700BF7C010020DC37000845030008FA
:10104C007D0D0008990D000880B590B000AF07F138
:10105C00180328220021184601F0E2FE3B1D002255
:10106C001A605A609A60DA601A610223BB6101232C
:10107C00BB621023FB6200237B6307F11803184645
:10108C0000F0DEFE0346002B01D000F0F9F80F2330
:10109C007B600023BB600023FB6000233B610023CB
:1010AC007B613B1D0021184601F04CF90346002BD7
:1010BC0001D000F0E5F800BF4037BD4680BD000010
:1010CC0080B586B000AF07F1080300221A605A60A1
:1010DC009A60DA603B4600221A605A601D4B4FF052
:1010EC0080421A601B4B41F63F725A60194B00222A
:1010FC009A60184B0922DA60164B00221A61154BC4
:10110C0000229A61134801F079FA0346002B01D0B2
:10111C0000F0B6F84FF48053BB6007F10803194692
:10112C000C4801F0F7FB0346002B01D000F0A8F8A7
:10113C0000233B6000237B603B461946054801F0C9
:10114C00CFFD0346002B01D000F09AF800BF1837F2
:10115C00BD4680BD7C01002080B588B000AF07F192
:10116C00100300221A605A609A60DA603B4B9B694C
:10117C003A4A43F010039361384B9B6903F0100318
:10118C00FB60FB68354B9B69344A43F00403936165
:10119C00324B9B6903F00403BB60BB682F4B9B690C
:1011AC002E4A43F0080393612C4B9B6903F0080310
:1011BC007B607B68002249F63F41294800F027FEFE
:1011CC0000223F21274800F022FE4FF400533B61E0
:1011DC0000237B610023BB6107F1100319462248F1
:1011EC0000F082FC49F63F433B6101237B61002305
:1011FC00BB610223FB6107F110031946184800F08C
:10120C0073FC3F233B6101237B610023BB61022301
:10121C00FB6107F110031946124800F065FC4FF40E
:10122C0040433B6100237B610023BB6107F110034A
:10123C0019460C4800F058FC4FF4C0433B610023A6
:10124C007B610023BB6107F110031946044800F0D1
:10125C004BFC00BF2037BD4680BD00BF00100240D4
:10126C0000080140000C01400010014080B582B024
:10127C0000AF786000F074F800BF0837BD4680BD41
:10128C0080B400AF72B600BF00BFFDE780B483B07E
:10129C0000AF03463960FB80FB88074A52F82320D5
:1012AC003B685A60FB8804493A6841F8232000BF28
:1012BC000C37BD4680BC7047B802002080B483B0A8
:1012CC0000AF00237B6023E0204A7B681B011344A2
:1012DC0000221A601D4A7B681B0113440433002250
:1012EC001A601A4A7B681B011344083300221A60E7
:1012FC00164A7B681B0113440C3300221A70144AE3
:10130C007B68DB00134400225A607B6801337B60EE
:10131C007B68092BD8DD00233B6007E00D4A3B6856
:10132C00002142F823103B6801333B603B68B3F566
:10133C007A7FF3DB084B00221A80084B00221A60DC
:10134C0000BF0C37BD4680BC704700BFC4010020F5
:10135C0068020020B802002058120020640200200D
:10136C0080B586B000AF2E4B1B680A332C4A136035
:10137C002C4B1B881A462C4B53F822307B61294B83
:10138C001B881946284B002243F8212033E07B6947
:10139C005B683B617B691B78FB73FB7B1B01234AFE
:1013AC001344BB60BB681B68002B22D0BB681B7B43
:1013BC000133DAB2BB681A73BB689B68002B15D07B
:1013CC00184B1B881A46BB689B681A44184BA3FB26
:1013DC0002139B094FF47A7101FB03F3D31AFB80C0
:1013EC00FB8879691846FFF751FF02E07B69002200
:1013FC005A603B697B617B69002BC8D1094B1B8808
:10140C0001339AB2074B1A80064B1B88B3F57A7FCF
:10141C0002D3044B00221A8000BF1837BD4680BD92
:10142C006402002058120020B8020020C4010020E1
:10143C00D34D621080B582B000AF00237B6033E0E7
:10144C001D4A7B681B0113440C331B78002B28D0DE
:10145C00194A7B681B0113441B68002B21D0164AC8
:10146C007B681B0113441B689847134A7B681B015C
:10147C0013440C331B78013BD9B20F4A7B681B0118
:10148C0013440C330A461A700B4A7B681B01134435
:10149C0008331B68002B04D17B68DBB2184600F0C4
:1014AC0073F87B6801337B607B68092BC8DD00BF58
:1014BC0000BF0837BD4680BDC401002080B586B092
:1014CC0000AFF860B9607A6000237B614BE02A4A78
:1014DC007B691B0113441B68002B41D1264A7B6995
:1014EC001B011344FA681A60234A7B691B011344DD
:1014FC000433BA681A60204A7B691B011344083311
:10150C007A681A601C4A7B691B0113440C33002255
:10151C001A707B69D9B2194A7B6902F83310174AE1
:10152C007B69DB00134400225A60154B1B881A465A
:10153C00BB681A44134BA3FB02139B094FF47A713B
:10154C0001FB03F3D31A7B827B69DB000B4A1A4441
:10155C007B8A11461846FFF799FE7B69DBB206E0E1
:10156C007B6901337B617B69092BB0DDFF23184656
:10157C001837BD4680BD00BFC401002068020020A2
:10158C0058120020D34D621080B483B000AF0346D4
:10159C00FB71FB79092B01D901231BE0FB79104A64
:1015AC001B01134400221A60FB790D4A1B011344E2
:1015BC00043300221A60FB79094A1B0113440833D7
:1015CC0000221A60FB79064A1B0113440C330022DB
:1015DC001A70002318460C37BD4680BC704700BFFC
:1015EC00C401002080B485B000AF154B9B69144A30
:1015FC0043F001039361124B9B6903F00103BB6041
:10160C00BB680F4BDB690E4A43F08053D3610C4B24
:10161C00DB6903F080537B607B680A4B5B68FB6083
:10162C00FB6823F0E063FB60FB6843F08063FB60C6
:10163C00044AFB68536000BF1437BD4680BC70473A
:10164C00001002400000014080B584B000AF78600B
:10165C007B681B68B3F1804F13D10C4BDB690B4AD1
:10166C0043F00103D361094BDB6903F00103FB6019
:10167C00FB68002200211C2000F0FFF91C2000F068
:10168C0018FA00BF1037BD4680BD00BF00100240E5
:10169C0080B400AF00BFFDE780B400AF00BFFDE732
:1016AC0080B400AF00BFFDE780B400AF00BFFDE722
:1016BC0080B400AF00BFFDE780B400AF00BFBD46F3
:1016CC0080BC704780B400AF00BFBD4680BC704783
:1016DC0080B400AF00BFBD4680BC704780B500AF82
:1016EC0000F0B4F800BF80BD80B500AF024801F037
:1016FC0021F800BF80BD00BF7C01002080B586B002
:10170C0000AF7860144A154BD31A7B617B693B613F
:10171C00134B1B68002B02D1114B124A1A60104B51
:10172C001A687B6813443A699A4207D201F080FB2D
:10173C0003460C221A604FF0FF3309E0084B1B687C
:10174C00FB60074B1A687B681344054A1360FB68FF
:10175C0018461837BD4680BD002800200004000044
:10176C005C120020B013002080B400AF00BFBD4657
:10177C0080BC7047FFF7F8FF0B480C490C4A00235C
:10178C0002E0D458C4500433C4188C42F9D3094A2B
:10179C00094C002301E013600432A242FBD301F098
:1017AC004DFBFFF709FC7047000000208C00002067
:1017BC00543800088C000020AC130020FEE7000019
:1017CC0080B500AF084B1B68074A43F01003136049
:1017DC00032000F047F90F2000F008F8FFF702FF94
:1017EC000023184680BD00BF0020024080B582B0A7
:1017FC0000AF7860124B1A68124B1B7819464FF4E5
:10180C007A73B3FBF1F3B2FBF3F3184600F05FF914
:10181C000346002B01D001230EE07B680F2B0AD866
:10182C00002279684FF0FF3000F027F9064A7B68F8
:10183C001360002300E0012318460837BD4680BD25
:10184C0030000020380000203400002080B400AFAD
:10185C00054B1B781A46054B1B681344034A13604F
:10186C0000BFBD4680BC70473800002060120020CD
:10187C0080B400AF024B1B681846BD4680BC704755
:10188C006012002080B584B000AF7860FFF7F0FFE5
:10189C00B8607B68FB60FB68B3F1FF3F05D00A4B77
:1018AC001B781A46FB681344FB6000BFFFF7E0FF90
:1018BC000246BB68D31AFA689A42F7D800BF00BF39
:1018CC001037BD4680BD00BF3800002080B485B005
:1018DC0000AF78607B6803F00703FB600C4BDB68A0
:1018EC00BB60BA684FF6FF031340BB60FB681A027B
:1018FC00BB68134343F0BF6343F40033BB60044A3B
:10190C00BB68D36000BF1437BD4680BC704700BFB6
:10191C0000ED00E080B400AF044BDB681B0A03F061
:10192C0007031846BD4680BC704700BF00ED00E0C1
:10193C0080B483B000AF0346FB7197F90730002BDE
:10194C000BDBFB7903F01F02064997F907305B09A3
:10195C00012000FA02F241F8232000BF0C37BD46EB
:10196C0080BC704700E100E080B483B000AF034658
:10197C003960FB7197F90730002B0ADB3B68DAB250
:10198C000C4997F907301201D2B20B4483F80023AB
:10199C000AE03B68DAB20849FB7903F00F03043B19
:1019AC001201D2B20B441A7600BF0C37BD4680BC74
:1019BC00704700BF00E100E000ED00E080B489B0AA
:1019CC0000AFF860B9607A60FB6803F00703FB6155
:1019DC00FB69C3F10703042B28BF0423BB61FB691C
:1019EC000433062B02D9FB69033B00E000237B6127
:1019FC004FF0FF32BB6902FA03F3DA43BB681A40BB
:101A0C007B699A404FF0FF317B6901FA03F3D943AC
:101A1C007B680B40134318462437BD4680BC704787
:101A2C0080B582B000AF78607B68013BB3F1807FFA
:101A3C0001D301230FE00A4A7B68013B53600F215D
:101A4C004FF0FF30FFF790FF054B00229A60044BDC
:101A5C0007221A60002318460837BD4680BD00BF18
:101A6C0010E000E080B582B000AF78607868FFF7D6
:101A7C002DFF00BF0837BD4680BD80B586B000AFD6
:101A8C000346B9607A60FB7300237B61FFF742FF6A
:101A9C0078617A68B9687869FFF790FF024697F920
:101AAC000F3011461846FFF75FFF00BF1837BD46D1
:101ABC0080BD80B582B000AF0346FB7197F907304B
:101ACC001846FFF735FF00BF0837BD4680BD80B50F
:101ADC0082B000AF78607868FFF7A2FF0346184623
:101AEC000837BD4680BD000080B48BB000AF786075
:101AFC00396000237B6200233B6261E101227B6A37
:101B0C0002FA03F3FB613B681B68FA691340BB6183
:101B1C00BA69FB699A4240F050813B685B68974A0E
:101B2C0093425ED0954A934275D8954A934258D0C9
:101B3C00934A93426FD8934A934252D0914A93421C
:101B4C0069D8914A93424CD08F4A934263D88F4ABA
:101B5C00934246D08D4A93425DD8122B2AD8122B31
:101B6C0059D801A252F823F0EF1B0008C91B00083A
:101B7C00DB1B00081D1C0008231C0008231C00088C
:101B8C00231C0008231C0008231C0008231C00082D
:101B9C00231C0008231C0008231C0008231C00081D
:101BAC00231C0008231C0008231C0008D11B000860
:101BBC00E51B0008764A934213D02CE03B68DB68A7
:101BCC003B6229E03B68DB6804333B6224E03B6802
:101BDC00DB6808333B621FE03B68DB680C333B621D
:101BEC001AE03B689B68002B02D104233B6213E094
:101BFC003B689B68012B05D108233B627B68FA6923
:101C0C001A6109E008233B627B68FA695A6103E0B8
:101C1C0000233B6200E000BFBB69FF2B01D87B684F
:101C2C0001E07B6804337B61BB69FF2B02D87B6AC4
:101C3C009B0002E07B6A083B9B003B617B691A6856
:101C4C000F213B6901FA03F3DB431A40396A3B6904
:101C5C0001FA03F31A437B691A603B685B6803F073
:101C6C008053002B00F0A9804A4B9B69494A43F0F2
:101C7C0001039361474B9B6903F00103BB60BB6895
:101C8C00454A7B6A9B08023352F82330FB607B6A1F
:101C9C0003F003039B000F2202FA03F3DB43FA6801
:101CAC001340FB607B683D4A93420DD07B683C4AF5
:101CBC00934207D07B683B4A934201D1022304E054
:101CCC00032302E0012300E000237A6A02F00302FE
:101CDC0092009340FA681343FB602F497B6A9B0880
:101CEC000233FA6841F823203B685B6803F48013E5
:101CFC00002B06D02C4B9A682B49BB6913438B6085
:101D0C0006E0294B9A68BB69DB43274913408B607B
:101D1C003B685B6803F40013002B06D0224BDA6897
:101D2C002149BB691343CB6006E01F4BDA68BB69E2
:101D3C00DB431D491340CB603B685B6803F4003305
:101D4C00002B06D0184B5A681749BB6913434B60DC
:101D5C0006E0154B5A68BB69DB43134913404B60D3
:101D6C003B685B6803F48033002B1FD00E4B1A6862
:101D7C000D49BB6913430B601FE000BF000032101C
:101D8C000000311000002210000021100000121081
:101D9C00000011100010024000000140000801403A
:101DAC00000C014000100140000401400B4B1A686C
:101DBC00BB69DB43094913400B607B6A01337B62CF
:101DCC003B681A687B6A22FA03F3002B7FF496AE09
:101DDC0000BF00BF2C37BD4680BC704700040140DB
:101DEC0080B485B000AF78600B467B807B689A68C6
:101DFC007B881340002B02D00123FB7301E00023EE
:101E0C00FB73FB7B18461437BD4680BC704780B40F
:101E1C0083B000AF78600B467B8013467B707B7879
:101E2C00002B03D07A887B681A6103E07B881A0444
:101E3C007B681A6100BF0C37BD4680BC7047000040
:101E4C0080B586B000AF78607B68002B01D1012390
:101E5C0072E27B681B6803F00103002B00F08780A3
:101E6C00924B5B6803F00C03042B0CD08F4B5B681C
:101E7C0003F00C03082B12D18C4B5B6803F48033FA
:101E8C00B3F5803F0BD1894B1B6803F40033002B57
:101E9C006CD07B685B68002B68D101234CE27B68BB
:101EAC005B68B3F5803F06D1804B1B687F4A43F4D7
:101EBC00803313602EE07B685B68002B0CD17B4B6E
:101ECC001B687A4A23F480331360784B1B68774A7B
:101EDC0023F4802313601DE07B685B68B3F5A02FAF
:101EEC000CD1724B1B68714A43F4802313606F4B07
:101EFC001B686E4A43F4803313600BE06B4B1B681A
:101F0C006A4A23F480331360684B1B68674A23F4D6
:101F1C00802313607B685B68002B13D0FFF7A8FC51
:101F2C00386108E0FFF7A4FC02463B69D31A642B26
:101F3C0001D9032300E25D4B1B6803F40033002B33
:101F4C00F0D014E0FFF794FC386108E0FFF790FC48
:101F5C0002463B69D31A642B01D90323ECE1534BA2
:101F6C001B6803F40033002BF0D100E000BF7B684A
:101F7C001B6803F00203002B63D04C4B5B6803F02F
:101F8C000C03002B0BD0494B5B6803F00C03082BA4
:101F9C001CD1464B5B6803F48033002B16D1434BAA
:101FAC001B6803F00203002B05D07B681B69012B17
:101FBC0001D00123C0E13D4B1B6823F0F8027B6884
:101FCC005B69DB00394913430B603AE07B681B69A2
:101FDC00002B20D0364B01221A60FFF749FC3861E8
:101FEC0008E0FFF745FC02463B69D31A022B01D9E6
:101FFC000323A1E12D4B1B6803F00203002BF0D04F
:10200C002A4B1B6823F0F8027B685B69DB002749CD
:10201C0013430B6015E0264B00221A60FFF728FCD7
:10202C00386108E0FFF724FC02463B69D31A022B07
:10203C0001D9032380E11D4B1B6803F00203002B25
:10204C00F0D17B681B6803F00803002B3AD07B6847
:10205C009B69002B19D0174B01221A60FFF708FC63
:10206C00386108E0FFF704FC02463B69D31A022BE7
:10207C0001D9032360E10D4B5B6A03F00203002BD3
:10208C00F0D0012000F09CFA1CE00A4B00221A60F0
:10209C00FFF7EEFB38610FE0FFF7EAFB02463B6906
:1020AC00D31A022B08D9032346E100BF00100240CB
:1020BC000000424280044242924B5B6A03F00203EE
:1020CC00002BE9D17B681B6803F00403002B00F0A4
:1020DC00A6800023FB758B4BDB6903F08053002B30
:1020EC000DD1884BDB69874A43F08053D361854B14
:1020FC00DB6903F08053BB60BB680123FB75824B2B
:10210C001B6803F48073002B18D17F4B1B687E4A2D
:10211C0043F480731360FFF7ABFB386108E0FFF703
:10212C00A7FB02463B69D31A642B01D9032303E1B5
:10213C00754B1B6803F48073002BF0D07B68DB6855
:10214C00012B06D16F4B1B6A6E4A43F001031362DD
:10215C002DE07B68DB68002B0CD16A4B1B6A694A4B
:10216C0023F001031362674B1B6A664A23F00403D6
:10217C0013621CE07B68DB68052B0CD1614B1B6A7E
:10218C00604A43F0040313625E4B1B6A5D4A43F0E2
:10219C00010313620BE05B4B1B6A5A4A23F00103E9
:1021AC001362584B1B6A574A23F0040313627B6873
:1021BC00DB68002B15D0FFF75BFB38610AE0FFF7FB
:1021CC0057FB02463B69D31A41F28832934201D93C
:1021DC000323B1E04B4B1B6A03F00203002BEED040
:1021EC0014E0FFF745FB38610AE0FFF741FB0246BC
:1021FC003B69D31A41F28832934201D903239BE005
:10220C00404B1B6A03F00203002BEED1FB7D012B2C
:10221C0005D13C4BDB693B4A23F08053D3617B688F
:10222C00DB69002B00F08780364B5B6803F00C03F6
:10223C00082B61D07B68DB69022B46D1334B002223
:10224C001A60FFF715FB386108E0FFF711FB024637
:10225C003B69D31A022B01D903236DE0294B1B6870
:10226C0003F00073002BF0D17B681B6AB3F5803F41
:10227C0008D1244B5B6823F400327B689B682149AE
:10228C0013434B601F4B5B6823F474127B68196A11
:10229C007B685B6A0B431B4913434B601B4B01224E
:1022AC001A60FFF7E5FA386108E0FFF7E1FA024639
:1022BC003B69D31A022B01D903233DE0114B1B6858
:1022CC0003F00073002BF0D035E0104B00221A60A5
:1022DC00FFF7CEFA386108E0FFF7CAFA02463B690D
:1022EC00D31A022B01D9032326E0064B1B6803F0FB
:1022FC000073002BF0D11EE07B68DB69012B07D14A
:10230C00012319E0001002400070004060004242BE
:10231C000B4B5B68FB60FB6803F480327B681B6AC9
:10232C009A4206D1FB6803F470127B685B6A9A428E
:10233C0001D0012300E0002318461837BD4680BDAC
:10234C000010024080B584B000AF786039607B68C3
:10235C00002B01D10123D0E06A4B1B6803F007036B
:10236C003A689A4210D9674B1B6823F007026549FB
:10237C003B6813430B60634B1B6803F007033A681D
:10238C009A4201D00123B8E07B681B6803F002037A
:10239C00002B20D07B681B6803F00403002B05D0B6
:1023AC00594B5B68584A43F4E06353607B681B6885
:1023BC0003F00803002B05D0534B5B68524A43F4DF
:1023CC0060535360504B5B6823F0F0027B689B6852
:1023DC004D4913434B607B681B6803F00103002BD2
:1023EC0040D07B685B68012B07D1474B1B6803F41B
:1023FC000033002B15D101237FE07B685B68022B37
:10240C0007D1414B1B6803F00073002B09D101234A
:10241C0073E03D4B1B6803F00203002B01D1012339
:10242C006BE0394B5B6823F003027B685B683649D1
:10243C0013434B60FFF71CFAF8600AE0FFF718FA39
:10244C000246FB68D31A41F28832934201D9032326
:10245C0053E02D4B5B6803F00C027B685B689B00C0
:10246C009A42EBD1274B1B6803F007033A689A4258
:10247C0010D2244B1B6823F0070222493B681343FC
:10248C000B60204B1B6803F007033A689A4201D09B
:10249C00012332E07B681B6803F00403002B08D097
:1024AC00194B5B6823F4E0627B68DB6816491343C5
:1024BC004B607B681B6803F00803002B09D0124BA0
:1024CC005B6823F460527B681B69DB000E49134385
:1024DC004B6000F021F802460B4B5B681B0903F0C4
:1024EC000F030A49CB5C22FA03F3094A1360094B28
:1024FC001B681846FFF77AF9002318461037BD46BB
:10250C0080BD00BF0020024000100240EC370008E4
:10251C00300000203400002080B487B000AF0023CE
:10252C00FB600023BB6000237B6100237B600023E6
:10253C003B611E4B5B68FB60FB6803F00C03042BD8
:10254C0002D0082B03D027E0194B3B6127E0FB6836
:10255C009B0C03F00F03174AD35C7B60FB6803F4FE
:10256C008033002B10D0114B5B685B0C03F0010324
:10257C00114AD35CBB607B680D4A03FB02F2BB685B
:10258C00B2FBF3F37B6104E07B680C4A02FB03F3C0
:10259C007B617B693B6102E0054B3B6100BF3B69A2
:1025AC0018461C37BD4680BC704700BF0010024067
:1025BC0000127A00FC3700080C38000800093D00B6
:1025CC0080B485B000AF78600A4B1B680A4AA2FB46
:1025DC0003235B0A7A6802FB03F3FB6000BFFB6812
:1025EC005A1EFA60002BF9D100BF00BF1437BD464C
:1025FC0080BC704730000020D34D621080B582B093
:10260C0000AF78607B68002B01D1012341E07B682F
:10261C0093F83D30DBB2002B06D17B68002283F8A7
:10262C003C207868FFF710F87B68022283F83D2085
:10263C007B681A687B6804331946104600F056FA1A
:10264C007B68012283F846207B68012283F83E20B8
:10265C007B68012283F83F207B68012283F84020AD
:10266C007B68012283F841207B68012283F8422099
:10267C007B68012283F843207B68012283F8442085
:10268C007B68012283F845207B68012283F83D207A
:10269C00002318460837BD4680BD000080B485B0C5
:1026AC0000AF78607B6893F83D30DBB2012B01D032
:1026BC00012335E07B68022283F83D207B681B6890
:1026CC00DA687B681B6842F00102DA607B681B6881
:1026DC00164A934209D07B681B68B3F1804F04D033
:1026EC007B681B68124A934211D17B681B689B68FC
:1026FC0003F00703FB60FB68062B10D07B681B689C
:10270C001A687B681B6842F001021A6007E07B685C
:10271C001B681A687B681B6842F001021A60002370
:10272C0018461437BD4680BC704700BF002C0140D2
:10273C000004004080B584B000AF78607B681B68F3
:10274C00DB68FB607B681B681B69BB60BB6803F0C4
:10275C000203002B20D0FB6803F00203002B1BD0DC
:10276C007B681B686FF002021A617B6801221A7782
:10277C007B681B689B6903F00303002B03D078680C
:10278C0000F098F905E0786800F08BF9786800F0B3
:10279C009AF97B6800221A77BB6803F00403002BBC
:1027AC0020D0FB6803F00403002B1BD07B681B6854
:1027BC006FF004021A617B6802221A777B681B682F
:1027CC009B6903F44073002B03D0786800F072F916
:1027DC0005E0786800F065F9786800F074F97B68BA
:1027EC0000221A77BB6803F00803002B20D0FB688B
:1027FC0003F00803002B1BD07B681B686FF00802EA
:10280C001A617B6804221A777B681B68DB6903F00A
:10281C000303002B03D0786800F04CF905E07868CE
:10282C0000F03FF9786800F04EF97B6800221A77C7
:10283C00BB6803F01003002B20D0FB6803F01003DF
:10284C00002B1BD07B681B686FF010021A617B6831
:10285C0008221A777B681B68DB6903F44073002B32
:10286C0003D0786800F026F905E0786800F019F9D3
:10287C00786800F028F97B6800221A77BB6803F0AF
:10288C000103002B0CD0FB6803F00103002B07D0D5
:10289C007B681B686FF001021A617868FEF7E6FC32
:1028AC00BB6803F08003002B0CD0FB6803F08003A3
:1028BC00002B07D07B681B686FF080021A61786868
:1028CC0000F06FFABB6803F04003002B0CD0FB68E0
:1028DC0003F04003002B07D07B681B686FF04002AD
:1028EC001A61786800F0F8F8BB6803F02003002B3D
:1028FC000CD0FB6803F02003002B07D07B681B680F
:10290C006FF020021A61786800F042FA00BF1037AD
:10291C00BD4680BD80B584B000AF786039600023BF
:10292C00FB737B6893F83C30012B01D10223B4E09C
:10293C007B68012283F83C207B68022283F83D20CF
:10294C007B681B689B68BB60BB6823F07703BB602C
:10295C00BB6823F47F43BB607B681B68BA689A60D2
:10296C003B681B68B3F5005F3ED0B3F5005F00F227
:10297C008780B3F5805F00F08680B3F5805F7FD8E9
:10298C00702B1AD0702B7BD8602B50D0602B77D843
:10299C00502B3CD0502B73D8402B58D0402B6FD899
:1029AC00302B64D0302B6BD8202B60D0202B67D8E9
:1029BC00002B5CD0102B5AD062E07B6818683B6807
:1029CC0099683B685A683B68DB6800F06AF97B6879
:1029DC001B689B68BB60BB6843F07703BB607B687C
:1029EC001B68BA689A604FE07B6818683B68996806
:1029FC003B685A683B68DB6800F053F97B681B68DE
:102A0C009A687B681B6842F480429A603CE07B6861
:102A1C0018683B6859683B68DB681A4600F0CAF8CE
:102A2C007B681B685021184600F021F92CE07B686C
:102A3C0018683B6859683B68DB681A4600F0E8F890
:102A4C007B681B686021184600F011F91CE07B685C
:102A5C0018683B6859683B68DB681A4600F0AAF8AE
:102A6C007B681B684021184600F001F90CE07B687C
:102A7C001A683B681B681946104600F0F8F803E02A
:102A8C000123FB7300E000BF7B68012283F83D202B
:102A9C007B68002283F83C20FB7B18461037BD4630
:102AAC0080BD80B483B000AF786000BF0C37BD46EA
:102ABC0080BC704780B483B000AF786000BF0C3727
:102ACC00BD4680BC704780B483B000AF786000BF57
:102ADC000C37BD4680BC704780B483B000AF7860C3
:102AEC0000BF0C37BD4680BC7047000080B485B079
:102AFC0000AF786039607B681B68FB607B682B4A91
:102B0C00934207D07B68B3F1804F03D07B68284A8F
:102B1C00934208D1FB6823F07003FB603B685B6851
:102B2C00FA681343FB607B68204A934207D07B68AA
:102B3C00B3F1804F03D07B681D4A934208D1FB68E8
:102B4C0023F44073FB603B68DB68FA681343FB605B
:102B5C00FB6823F080023B685B691343FB607B6876
:102B6C00FA681A603B689A687B68DA623B681A6894
:102B7C007B689A627B680D4A934203D13B681A6961
:102B8C007B681A637B6801225A617B681B6903F0BE
:102B9C000103002B05D07B681B6923F001027B68C5
:102BAC001A6100BF1437BD4680BC7047002C014031
:102BBC000004004080B487B000AFF860B9607A6060
:102BCC00FB681B6A7B61FB681B6A23F00102FB68D4
:102BDC001A62FB689B693B613B6923F0F0033B6124
:102BEC007B681B013A6913433B617B6923F00A0341
:102BFC007B617A69BB6813437B61FB683A699A61B4
:102C0C00FB687A691A6200BF1C37BD4680BC7047EE
:102C1C0080B487B000AFF860B9607A60FB681B6A5B
:102C2C007B61FB681B6A23F01002FB681A62FB686D
:102C3C009B693B613B6923F470433B617B681B03DD
:102C4C003A6913433B617B6923F0A0037B61BB684A
:102C5C001B017A6913437B61FB683A699A61FB68D3
:102C6C007A691A6200BF1C37BD4680BC704780B4BD
:102C7C0085B000AF786039607B689B68FB60FB684F
:102C8C0023F07003FB603A68FB68134343F00703BF
:102C9C00FB607B68FA689A6000BF1437BD4680BC45
:102CAC00704780B487B000AFF860B9607A603B6061
:102CBC00FB689B687B617B6923F47F437B613B688A
:102CCC001A027B681A43BB6813437A6913437B610E
:102CDC00FB687A699A6000BF1C37BD4680BC7047A0
:102CEC0080B485B000AF786039607B6893F83C3075
:102CFC00012B01D1022341E07B68012283F83C20A7
:102D0C007B68022283F83D207B681B685B68FB6054
:102D1C007B681B689B68BB60FB6823F07003FB60DF
:102D2C003B681B68FA681343FB607B681B68FA6896
:102D3C005A607B681B68144A934209D07B681B68F5
:102D4C00B3F1804F04D07B681B68104A93420CD1BE
:102D5C00BB6823F08003BB603B685B68BA681343B5
:102D6C00BB607B681B68BA689A607B68012283F839
:102D7C003D207B68002283F83C2000231846143742
:102D8C00BD4680BC704700BF002C014000040040D1
:102D9C0080B483B000AF786000BF0C37BD4680BCF8
:102DAC00704780B483B000AF786000BF0C37BD466D
:102DBC0080BC70470CB430B5184B0C1E1D689DB010
:102DCC0008DA8B234FF0FF302B601DB0BDE830408C
:102DDC0002B070474FF40273ADF814304FF000039B
:102DEC001B930CBF234604F1FF33049307934FF658
:102DFC00FF7302900690ADF81630284621AB209A4E
:102E0C0002A9019300F09AF9431CBCBF8B232B60E1
:102E1C00002CDAD00022029B1A70D6E73C0000206E
:102E2C0003460244934200D1704703F8011BF9E7B3
:102E3C00014B1868704700BF3C00002070B500269D
:102E4C000C4D0D4C641BA410A64209D100F07EFC65
:102E5C0000260A4D0A4C641BA410A64205D170BD75
:102E6C0055F8043B98470136EEE755F8043B984774
:102E7C000136F2E74C3800084C3800084C38000892
:102E8C005038000870477047034611F8012B03F8BF
:102E9C00012B002AF9D1704738B50546002940D0DE
:102EAC0051F8043C0C1F002BB8BFE41800F0DEF8FE
:102EBC001C4A136833B9636014602846BDE8384077
:102ECC0000F0DAB8A34208D9206821188B4201BF60
:102EDC0019685B6809182160EDE71A465B680BB14D
:102EEC00A342FAD911685018A0420BD120680144B2
:102EFC00501883421160E0D118685B680844106078
:102F0C005360DAE702D90C232B60D6E7206821182E
:102F1C008B4201BF19685B680918216063605460BB
:102F2C00CBE738BDA813002070B50F4E0C463168A6
:102F3C00054611B900F0A8FB30602146284600F088
:102F4C00A3FB431C03D14FF0FF34204670BDC41CBF
:102F5C0024F00304A042F8D0211A284600F094FB78
:102F6C000130F2D1EFE700BFA41300202DE9F843A4
:102F7C00CD1C25F0030508350C2D38BF0C25002D74
:102F8C00064601DBA94204D90C2333600020BDE8BE
:102F9C00F883DFF8D48000F069F8D8F800301C46CC
:102FAC0044BB29463046FFF7BFFF431C044658D1AB
:102FBC00D8F800402746002F43D1002C4BD0236873
:102FCC003946304604EB030900F05EFB814542D1E3
:102FDC00216830466D1A2946FFF7A6FF01303AD01A
:102FEC0023682B442360D8F800305A6862BBC8F8B9
:102FFC0000700FE02268521B20D40B2A17D96119DC
:10300C00A342256018BF5960636808BFC8F8001058
:10301C0062514B60304600F02FF804F10B00231D79
:10302C0020F00700C21A1CBF1B1AA350AFE762683E
:10303C00A3420CBFC8F800205A60EBE72346646833
:10304C00AEE73C467F68B6E71A465B68A342FBD105
:10305C0000235360DEE70C233046336000F00CF89D
:10306C0094E70560D6E700BFA81300200148FFF7DE
:10307C0009BF00BFA01300200148FFF704BF00BF29
:10308C00A01300202DE9F0471F468E688246BE42F1
:10309C000C4690460B682DD8B1F90C2012F4906FA9
:1030AC0026D06569096905EB4505A3EB010905EB1C
:1030BC00D5757B1C4B446D109D4238BF1D46530586
:1030CC0027D52946FFF752FF064660B34A462169C9
:1030DC0000F0F8FAA38923F4906343F08003A381F2
:1030EC0026614E4426603E466561A5EB0905A56048
:1030FC00BE4200D93E4632464146206800F0AAFA4C
:10310C000020A3689B1BA360236833442360BDE8A5
:10311C00F0872A4600F0E4FA06460028E0D1504633
:10312C002169FFF7B9FE0C23CAF80030A3894FF0D0
:10313C00FF3043F04003A381E9E700002DE9F04F95
:10314C0098468B8907461B060D4614469DB010D534
:10315C000B6973B94021FFF709FF2860286130B96A
:10316C000C233B604FF0FF301DB0BDE8F08F4023C7
:10317C006B610023099320238DF8293030234FF005
:10318C000109CDF80C80DFF898818DF82A302346A0
:10319C009A4613F8012B0AB1252AF9D1BAEB040B84
:1031AC000BD05B46224629463846FFF76BFF0130B1
:1031BC0000F0A780099A5A4409929AF80030002B23
:1031CC0000F09F8000234FF0FF32CDE905230AF178
:1031DC00010A049307938DF853301A935446052231
:1031EC0014F8011B4E4800F05FFA049AD8B9D006C7
:1031FC0044BF20238DF85330110744BF2B238DF887
:10320C0053309AF800302A2B15D0544600204FF03A
:10321C000A0C079A214611F8013B303B092B4BD97C
:10322C00B0B1079214E0A0EB080309FA03F31343BF
:10323C00A2460493D2E7039B191D1B680391002B34
:10324C00BBBF5B4242F0020207930793B8BF0492E4
:10325C0023782E2B0AD163782A2B32D1039B02348C
:10326C001A1D1B68039243EAE3730593DFF8B4A0BD
:10327C0003225046217800F017FA38B14022049B03
:10328C00A0EB0A00824013430134049314F8011B91
:10329C00062225488DF8281000F006FA002836D0B2
:1032AC00224B1BBB039B073323F007030833039309
:1032BC00099B334409936AE70C4601200CFB02324C
:1032CC00A8E700234FF00A0C194601340593204659
:1032DC0010F8012B303A092A03D9002BC6D00591DE
:1032EC00C4E7044601230CFB0121F0E703AB009378
:1032FC002A4638460E4B04A9AFF30080421C064602
:10330C00D6D1AB895B063FF52DAF09982CE703AB03
:10331C0000932A463846064B04A900F07DF8EDE7E9
:10332C000E38000814380008183800080000000097
:10333C00913000082DE9F047164698468A680B69CB
:10334C0007469342B8BF1346336091F843200C46AE
:10335C00DDF820900AB1013333602368990642BF2F
:10336C00336802333360256815F0060506D104F185
:10337C00190AE36832689B1AAB422BDC94F8433091
:10338C002268003B18BF0123920630D441463846D0
:10339C0004F14302C847013023D02368226903F0AB
:1033AC000603042B14BF002533684FF0000608BF3A
:1033BC00E56804F11A0408BFED1A54F8123C08BF72
:1033CC0025EAE5759342C4BF9B1AED18B5421AD194
:1033DC00002008E00123524641463846C8470130D8
:1033EC0003D14FF0FF30BDE8F0870135C1E7302045
:1033FC00E11881F843005A1C94F84510224402331A
:10340C0082F84310C2E70123224641463846C8479A
:10341C000130E6D00136D9E72DE9FF470F7E914602
:10342C00782F80460C469A460C9E01F1430207D831
:10343C00622F0AD8002F00F0D180582F00F0B880EE
:10344C0004F1420684F842703AE0A7F16303152BAD
:10345C00F6D801A151F823F0BD340008D13400088E
:10346C004D3400084D3400084D3400084D3400082C
:10347C00D13400084D3400084D3400084D34000898
:10348C004D340008CF350008FB340008893500089E
:10349C004D3400084D340008F13500084D34000857
:1034AC00FB3400084D3400084D34000891350008F9
:1034BC0033681A1D1B68326004F1420684F84230EE
:1034CC0001239CE033682068191D3160060601D584
:1034DC001D6803E04506FBD5B3F90050002D03DA57
:1034EC002D236D4284F843300A23584811E021689B
:1034FC003368080653F8045B02D4490648BFADB2E2
:10350C006F2F336014BF0A2308235048002184F81E
:10351C0043106668002EA66005DB21682E4321F05F
:10352C00040121604BD01646B5FBF3F103FB115798
:10353C00C75D06F8017D2F46BB420D46F4D9082B1A
:10354C000BD12368DF0708D5236961689942DEBF78
:10355C00302306F8013C06F1FF36921B22614B46E4
:10356C0021464046CDF800A003AAFFF7E3FE013048
:10357C004AD14FF0FF3004B0BDE8F087236843F028
:10358C00200323607827324884F84570236831681B
:10359C001F0651F8045B02D45F0648BFADB2316020
:1035AC00D90744BF43F0200323601DB11023ADE7BE
:1035BC002648E9E7236823F020032360F6E7164644
:1035CC00BDE733682568181D616930602E061B68DD
:1035DC0001D5196002E06806FBD519800023164658
:1035EC002361BCE7336800211A1D32601E686268D3
:1035FC00304600F059F808B1801B606063682361A5
:10360C00002384F84330AAE73246494640462369F2
:10361C00D0470130ADD023689B0713D4E068039BDF
:10362C009842B8BF1846A6E70123324649464046A1
:10363C00D04701309DD00135E36803995B1AAB424A
:10364C00F2DCEBE7002504F11906F5E71F3800085A
:10365C0030380008884210B501EB020402D98442CC
:10366C00234607D8431EA14208D011F8012B03F8BA
:10367C00012FF8E7014602448A4200D110BD13F82D
:10368C00014D02F8014DF7E738B50023054D04460E
:10369C0008462B60FEF732F8431C02D12B6803B1AD
:1036AC00236038BD9C130020034610B5C9B20244F8
:1036BC009342184601D1002003E0047801338C4278
:1036CC00F6D110BD0A44914200F1FF3300D170478E
:1036DC0010B511F8014B914203F8014FF9D110BD0F
:1036EC002DE9F041074614460D4621B91146BDE8B7
:1036FC00F041FFF73BBC2AB9FFF7CEFB2546284625
:10370C00BDE8F08100F01AF88442064602D8B4EB0A
:10371C00500FF4D821463846FFF728FC804608B9EC
:10372C004546ECE7B4422246294628BF3246FFF70D
:10373C00C9FF29463846FFF7AFFBF1E751F8043CC7
:10374C00181F002BBCBF0B58C0187047F8B500BF32
:10375C00F8BC08BC9E467047F8B500BFF8BC08BC66
:04376C009E467047BE
:103770004155544F2050313A25632050323A256349
:103780000000000052313A25303264202052323A93
:103790002530326420000000434F4E4649473A200E
:1037A0005245442020202000434F4E4649473A5975
:1037B000454C4C4F57202000434F4E4649473A2036
:1037C000475245454E202000494E433A2530326449
:1037D000205345543A25303264200000545241466B
:1037E0004649432053595354454D00000000000002
:1037F0000000000001020304060708090203040593
:10380000060708090A0B0C0D0E0F10100102232DDC
:10381000302B2000686C4C006566674546470030D9
:103820003132333435363738394142434445460026
:103830003031323334353637383961626364656626
:043840000000000084
:0838440008C9FF7F010000002C
:04384C00310100083E
:043850000D0100085E
:103854000100000000000000000000000000000063
:10386400000000000100000005000000030000004B
:10387400050000000200000003000000FFFFFFFF3E
:1038840000127A0010000000010000004000002037
:103894000000000064120020CC1200203413002029
:1038A4000000000000000000000000000000000014
:1038B4000000000000000000000000000000000004
:1038C40000000000000000000000000000000000F4
:0C38D400000000000000000000000000E8
:040000050800178157
:00000001FF
