:020000040800F2
:1000000000280020D51300085D13000865130008C0
:100010006D130008751300087D1300080000000030
:100020000000000000000000000000008513000830
:1000300091130008000000009D130008A913000898
:100040001D1400081D1400081D1400081D140008CC
:100050001D1400081D1400081D1400081D140008BC
:100060001D1400081D1400081D1400081D140008AC
:100070001D1400081D1400081D1400081D1400089C
:100080001D1400081D1400081D1400081D1400088C
:100090001D1400081D1400081D1400081D1400087C
:1000A0001D1400081D1400081D1400081D1400086C
:1000B000B51300081D140008000000001D140008FE
:1000C0001D14000800000000000000001D140008BE
:1000D000000000001D1400081D14000800000000AE
:1000E0001D1400081D1400081D1400080000000065
:1000F0000000000000000000000000000000000000
:0C01000000000000000000005FF808F1A3
:10010C0010B5054C237833B9044B13B10448AFF345
:10011C0000800123237010BD40000020000000006F
:10012C00242A000808B5034B1BB103490348AFF35D
:10013C00008008BD0000000044000020242A0008B4
:10014C0080B483B000AF7860044A7B68012142F828
:10015C00231000BF0C37BD4680BC70475C000020EC
:10016C0080B483B000AF00237B6010E00C4A7B6846
:10017C0052F82330002B07D0094A7B68002142F843
:10018C0023107B68013306E07B6801337B607B685E
:10019C00042BEBDD002318460C37BD4680BC7047A2
:1001AC005C00002080B582B000AF564B1B68564AED
:1001BC001360564B1B68534A13604FF4005154485C
:1001CC0001F014FC03461A46504B1A604D4B5B6809
:1001DC004D4A53604D4B5B684A4A53604FF4005193
:1001EC004C4801F003FC03461A46484B5A60454BF9
:1001FC009B68454A9360454B9B68424A93604FF419
:10020C008041444801F0F2FB03461A463F4B9A608A
:10021C003C4BDB683C4AD3603C4BDB68394AD360CF
:10022C004FF480413C4801F0E1FB03461A46374B42
:10023C00DA60344B1B69344A1361344B1B69314A05
:10024C0013614FF40041344801F0D0FB03461A46C9
:10025C002E4B1A6100237B604CE02B4A7B6852F8D2
:10026C00232028497B6851F823309A423FD1254AF4
:10027C007B6852F8232025497B6851F823309A4239
:10028C0035D1264A7B6852F8232020497B6851F8E7
:10029C0023309A4216D01D4A7B6852F823201F49FE
:1002AC007B6841F823201D4A7B6852F82330002BD1
:1002BC001DD17868FFF744FF194A7B68C82142F8C2
:1002CC00231014E0154A7B6852F82330002B0ED112
:1002DC00134A7B6852F82330002B08DD104A7B68E8
:1002EC0052F823305A1E0E497B6841F823207B6854
:1002FC0001337B607B68042BAFDD00BF00BF083788
:10030C00BD4680BD840000207000002098000020B5
:10031C000010014000080140000C014000000020CA
:10032C00AC00002080B500AFFFF73CFF00F04EF9A9
:10033C0000BF80BD80B483B000AF786039607B684B
:10034C00002B01DA00237B603B68002B01DA0023D1
:10035C003B607B68632B01DD63237B603B68632B15
:10036C0001DD63233B607968184B83FB01239A10F2
:10037C00CB17D21A13469B0013445B00CA1A144BBA
:10038C001A607B68114A82FB03129210DB17D31A96
:10039C000F4A536039680D4B83FB01239A10CB171E
:1003AC00D21A13469B0013445B00CA1A084B9A607E
:1003BC003B68064A82FB03129210DB17D31A044ADD
:1003CC00D36000BF0C37BD4680BC7047676666665D
:1003DC00C000002080B586B000AF03463960FB71C9
:1003EC000123FB7500233B6127E0FA79FB7D134069
:1003FC00DBB2002B14BF01230023DBB2FB73FB7DAC
:10040C005B00FB753B68012B0AD101223B6902FAA8
:10041C0003F39BB2FA7B19460C4801F0FEFA09E093
:10042C0080223B6902FA03F39BB2FA7B1946074818
:10043C0001F0F3FA3B6901333B613B69062BD4DDD8
:10044C0000BF00BF1837BD4680BD00BF000C014087
:10045C0080B500AF00224FF47071024801F0DDFA54
:10046C0000BF80BD0008014080B582B000AF78604D
:10047C00FFF7EEFF7B68002B03D07B68012B1CD0B1
:10048C0037E01E4B5B681E4AD35C01211846FFF710
:10049C00A1FF012280211B4801F0BFFA174BDB683A
:1004AC00174AD35C02211846FFF794FF01224FF440
:1004BC000071144801F0B1FA1BE0104B1B68104A94
:1004CC00D35C01211846FFF785FF012240210D481E
:1004DC0001F0A3FA094B9B68094AD35C0221184628
:1004EC00FFF778FF01224FF48071064801F095FA6E
:1004FC0000BF00BF0837BD4680BD00BFC000002054
:10050C003C2A00080008014080B500AF064B1B6870
:10051C001846FFF7A9FF044B1B68C3F10103024AFD
:10052C00136000BF80BD00BFD000002080B584B038
:10053C0000AFF860B9607A603B60FB68002B0CBFC1
:10054C0001230023DBB21A4604211F4801F065FA8F
:10055C00BB68002B0CBF01230023DBB21A4602211F
:10056C00194801F05AFA7B68002B0CBF01230023B9
:10057C00DBB21A460121144801F04FFA3B68002BFC
:10058C000CBF01230023DBB21A4620210E4801F0D8
:10059C0044FABB69002B0CBF01230023DBB21A46C3
:1005AC001021094801F039FAFB69002B0CBF01231B
:1005BC000023DBB21A460821034801F02EFA00BFD3
:1005CC001037BD4680BD00BF0008014080B582B029
:1005DC0000AFFFF7C5FD78607B68002B00F0A080B2
:1005EC007B68013B042B00F29D8001A252F823F0A2
:1005FC00110600085F060008810600081D070008A8
:10060C00250700084A4B1B6801335A4203F00303C9
:10061C0002F0030258BF5342454A1360444B1B6817
:10062C00444A1360444B00221A60424B1B68012B56
:10063C0007D0404B1B68022B03D03E4B1B68032B8F
:10064C0003D13E4B01221A606FE03C4B00221A6032
:10065C006BE03A4B1B68002B04D0374B1B68013303
:10066C00354A1360344B1B68632B5DDD324B002223
:10067C001A6059E02F4B1B68032B24D0032B45DC4D
:10068C00012B02D0022B0FD040E02B4B1B682C4AC5
:10069C001360284B02221A60264B1B68244A1360F5
:1006AC00254B00221A6032E0234B1B68254A13604D
:1006BC00204B03221A601F4B1B681D4A13601E4BF4
:1006CC0000221A6023E01C4B1B681F4A13601D4B51
:1006DC001A681D4B1B681A44194B1B689A4208D0A8
:1006EC00174B05221A60174B02221A60164B032275
:1006FC001A60104B00221A600D4B00221A600E4B30
:10070C0000221A600D4B00221A6000E000BF0CE0C2
:10071C000E4B01221A6008E00D4B01221A6004E016
:10072C0000BF02E000BF00E000BF0837BD4680BD3F
:10073C00E0000020D4000020DC0000202C00002071
:10074C00200000202400002028000020E4000020CD
:10075C00F400002080B582B000AF786039607B680F
:10076C00002B0CBF01230023DBB21A464FF480612F
:10077C00094801F052F93B68002B0CBF0123002300
:10078C00DBB21A464FF40061034801F046F900BF92
:10079C000837BD4680BD00BF0008014080B582B05F
:1007AC0000AF786039607B68002B0CBF01230023FD
:1007BC00DBB21A464FF48051094801F02EF93B6820
:1007CC00002B0CBF01230023DBB21A464FF400416F
:1007DC00034801F022F900BF0837BD4680BD00BFB9
:1007EC000008014080B500AF254B1B68002B06D1DB
:1007FC00244B1B68002B02D1234B00221A60234B85
:10080C001B68002B06D1224B1B68002B02D1214BFD
:10081C0000221A601C4B1B68002B04D10021002005
:10082C00FFF798FF10E0184B1B68012B04D1002137
:10083C000120FFF78FFF07E0134B1B68022B03D13E
:10084C0001210020FFF786FF124B1B68002B04D1FF
:10085C0000210020FFF7A2FF10E00E4B1B68012BBC
:10086C0004D100210120FFF799FF07E0094B1B6819
:10087C00022B03D101210020FFF790FF00BF80BDA8
:10088C00E8000020E4000020F0000020F800002028
:10089C00F40000200001002080B586B002AFF860A3
:1008AC00B9607A603B60084AFB6813603B6A01934D
:1008BC00FB690093BB693A687968B868FFF736FE44
:1008CC0000BF1037BD4680BD1400002080B500AFBE
:1008DC00124B00221A60114B1B68114A1360114B0A
:1008EC0000221A600F4B1B680F4A13600F4B00223B
:1008FC001A600E4B1B680E4A13600E4B00221A60D6
:10090C000C4B1B680C4A136000210020FFF722FFE0
:10091C0000210020FFF742FF00BF80BDF400002043
:10092C00E4000020F8000020E8000020FC0000207B
:10093C00EC00002000010020F000002080B584B005
:10094C0004AF764B1B68764A126811461846FFF7BF
:10095C00F1FC724B1B68002B04DD704B1B68013BD8
:10096C006E4A13606E4B1B68002B04DD6C4B1B68CE
:10097C00013B6B4A13606B4B1B68013B032B00F272
:10098C00858001A252F823F0A5090008E1090008AE
:10099C001F0A00085B0A000801230293002301933D
:1009AC00002300930023002201210120FFF774FF94
:1009BC005D4B01221A605D4B01221A60584B1B687B
:1009CC00002B65DC5A4B1B68554A1360554B0222B1
:1009DC001A605DE00023029301230193002300932E
:1009EC000023002201210220FFF756FF4E4B01226B
:1009FC001A604B4B1B68002B4CDC4E4B1B68474A58
:100A0C0013604D4B1B68464A1360464B03221A6019
:100A1C0040E0002302930023019301230093012360
:100A2C00002200210320FFF737FF444B01221A60FC
:100A3C00434B01221A60394B1B68002B2CDC3C4BBE
:100A4C001B68364A1360374B04221A6024E00023DB
:100A5C000293002301930123009300230122002120
:100A6C000420FFF719FF354B01221A602B4B1B6832
:100A7C00002B13DC304B1B68284A13602D4B1B6872
:100A8C00274A1360274B01221A6007E000BF06E0DB
:100A9C0000BF04E000BF02E000BF00E000BF294B34
:100AAC001B68002B0FD0284B1B68002B0BD1264B3F
:100ABC0001221A60254B00221A60254B01221A6074
:100ACC00204B00221A60204B1B68002B0AD0204BB5
:100ADC001B68012B06D1144B1B68002B02D01C4B3E
:100AEC0002221A60184B1B68002B36D0184B1B685F
:100AFC00022B32D1124B1B68002B2ED0134B1B68D0
:100B0C000133124A1360114B1B68022B22DD0E4B72
:100B1C0000221A600E4B00221A601EE01800002002
:100B2C001C000020140000200401002010010020F3
:100B3C002400002028000020200000200C010020B0
:100B4C0008010020E4000020E8000020EC00002058
:100B5C00F00000202A4B01221A602A4B1B68002B44
:100B6C000FD0294B1B68002B0BD1274B01221A608D
:100B7C00264B00221A60264B01221A60214B0022C0
:100B8C001A60214B1B68002B0AD0214B1B68012BD0
:100B9C0006D1204B1B68002B02D01D4B02221A6081
:100BAC00194B1B68002B1AD0194B1B68022B16D142
:100BBC00194B1B68002B12D0144B1B680133134AC2
:100BCC001360124B1B68022B06DD0F4B00221A60C0
:100BDC000F4B00221A6002E00D4B01221A60FFF746
:100BEC0001FE0E4B00221A600A4B00221A600C4BBD
:100BFC0000221A60084B00221A6000BFBD4680BD5F
:100C0C00F0000020F4000020F8000020FC00002080
:100C1C00000100200C010020100100200401002024
:100C2C000801002080B584B000AFF860B9607A602C
:100C3C00494B1B680133002B03F00103B8BF5B4227
:100C4C00454A1360454B1B680133454A12681146EF
:100C5C001846FFF76FFB434B1B68002B0CBF01239F
:100C6C000023DBB21A463F4B1A60FB68002B18D0EE
:100C7C003C4B1B68002B0CBF01230023DBB21A4634
:100C8C000421394800F0C9FE364B1B68002B0CBF01
:100C9C0001230023DBB21A462021334800F0BDFEAD
:100CAC0009E001220421304800F0B7FE0122202186
:100CBC002D4800F0B2FEBB68002B18D0294B1B68E6
:100CCC00002B0CBF01230023DBB21A46022126485D
:100CDC0000F0A3FE234B1B68002B0CBF0123002349
:100CEC00DBB21A461021204800F097FE09E00122E1
:100CFC0002211D4800F091FE012210211A4800F03B
:100D0C008CFE7B68002B18D0164B1B68002B0CBF7D
:100D1C0001230023DBB21A460121134800F07DFEAB
:100D2C00104B1B68002B0CBF01230023DBB21A46AF
:100D3C0008210D4800F071FE09E0012201210A484A
:100D4C0000F06BFE01220821074800F066FE00BF90
:100D5C001037BD4680BD00BF30000020D4000020FD
:100D6C00DC000020D80000200008014080B500AF56
:100D7C00044B1B68002B02D1FFF7E0FD00E000BF25
:100D8C0000BF80BDD400002080B500AF0F4B1B68A6
:100D9C00032B12D0032B16DC012B02D0022B06D016
:100DAC0011E0002200210120FFF73CFF0CE00022A3
:100DBC0001210020FFF736FF06E001220021002070
:100DCC00FFF730FF00E000BF00BF80BDD400002063
:100DDC0080B584B004AF00F01DFB00F03BF800F0D0
:100DEC00C1F800F073F8164801F05EFAFFF76EFDDB
:100DFC0001220021134800F0EBF9322200211248A5
:100E0C0000F0E6F964220021104800F0E1F93222EA
:100E1C00FA210F4800F0DCF903210520FFF78AFACC
:100E2C00012302930023019300230093002300224B
:100E3C0001210120FFF730FD00F08CF9FCE700BF29
:100E4C00140100203103000815050008790D000875
:100E5C00950D000880B590B000AF07F1180328225B
:100E6C000021184601F0ACFD3B1D00221A605A60AF
:100E7C009A60DA601A610223BB610123BB62102302
:100E8C00FB6200237B6307F11803184600F0DEFDBC
:100E9C000346002B01D000F0FBF80F237B600023EE
:100EAC00BB600023FB6000233B6100237B613B1D87
:100EBC000021184601F04CF80346002B01D000F03D
:100ECC00E7F800BF4037BD4680BD000080B586B056
:100EDC0000AF07F1080300221A605A609A60DA60CA
:100EEC003B4600221A605A601D4B4FF080421A603C
:100EFC001B4B41F63F725A60194B00229A60184BFB
:100F0C000922DA60164B00221A61154B00229A61F5
:100F1C00134801F079F90346002B01D000F0B8F822
:100F2C004FF48053BB6007F1080319460C4801F0DD
:100F3C00F7FA0346002B01D000F0AAF800233B601F
:100F4C0000237B603B461946054801F0CFFC034665
:100F5C00002B01D000F09CF800BF1837BD4680BDB7
:100F6C001401002080B588B000AF07F110030022F7
:100F7C001A605A609A60DA603C4B9B693B4A43F0BA
:100F8C0010039361394B9B6903F01003FB60FB6802
:100F9C00364B9B69354A43F004039361334B9B6991
:100FAC0003F00403BB60BB68304B9B692F4A43F0D2
:100FBC00080393612D4B9B6903F008037B607B68EE
:100FCC00002249F6FF712A4800F027FD002243F663
:100FDC00FF71284800F021FD4FF400533B610023C2
:100FEC007B610023BB6107F110031946224800F016
:100FFC0081FB49F6FF733B6101237B610023BB61DD
:10100C000223FB6107F110031946194800F072FB2B
:10101C0043F6FF733B6101237B610023BB61022319
:10102C00FB6107F110031946124800F063FB4FF403
:10103C0040433B6100237B610023BB6107F110033C
:10104C0019460C4800F056FB4FF4C0433B6100239B
:10105C007B610023BB6107F110031946044800F0C3
:10106C0049FB00BF2037BD4680BD00BF00100240C9
:10107C0000080140000C01400010014080B582B016
:10108C0000AF786000F00AF800BF0837BD4680BD9D
:10109C0080B400AF72B600BF00BFFDE780B483B070
:1010AC0000AF2A4B1B680A33284A136000237B606D
:1010BC0042E0274A7B681B0113441B68002B38D085
:1010CC00234A7B681B01134404331B68002B23D178
:1010DC001F4A7B681B0113440C331B780133D9B2B4
:1010EC001B4A7B681B0113440C330A461A70184ABE
:1010FC007B681B01134408331B68002B19D0144A5E
:10110C007B681B01134408331A6811497B681B0167
:10111C000B4404331A600CE00D4A7B681B0113442A
:10112C0004331B685A1E0A497B681B010B440433A9
:10113C001A607B6801337B607B68092BB9DD00BFCB
:10114C0000BF0C37BD4680BC704700BFFC010020BF
:10115C005C01002080B582B000AF00237B602CE0E6
:10116C001A4A7B681B0113440C331B78002B21D0CB
:10117C00164A7B681B0113441B689847134A7B680B
:10118C001B0113440C331B78013BD9B20F4A7B680B
:10119C001B0113440C330A461A700C4A7B681B0162
:1011AC00134408331B68002B04D17B68DBB2184650
:1011BC0000F04AF87B6801337B607B68092BCFDD3C
:1011CC0000BF00BF0837BD4680BD00BF5C010020DA
:1011DC0080B487B000AFF860B9607A6000237B619F
:1011EC0027E0184A7B691B0113441B68002B1DD197
:1011FC00144A7B691B011344FA681A60114A7B6913
:10120C001B0113440433BA681A600E4A7B691B0134
:10121C00134408337A681A600A4A7B691B01134429
:10122C000C3300221A707B69DBB206E07B69013358
:10123C007B617B69092BD4DDFF2318461C37BD4627
:10124C0080BC70475C01002080B483B000AF0346C3
:10125C00FB71FB79092B01D901231BE0FB79104AA7
:10126C001B01134400221A60FB790D4A1B01134425
:10127C00043300221A60FB79094A1B01134408331A
:10128C0000221A60FB79064A1B0113440C3300221E
:10129C001A70002318460C37BD4680BC704700BF3F
:1012AC005C01002080B485B000AF154B9B69144ADB
:1012BC0043F001039361124B9B6903F00103BB6084
:1012CC00BB680F4BDB690E4A43F08053D3610C4B68
:1012DC00DB6903F080537B607B680A4B5B68FB60C7
:1012EC00FB6823F0E063FB60FB6843F08063FB600A
:1012FC00044AFB68536000BF1437BD4680BC70477E
:10130C00001002400000014080B584B000AF78604E
:10131C007B681B68B3F1804F13D10C4BDB690B4A14
:10132C0043F00103D361094BDB6903F00103FB605C
:10133C00FB68002200211C2000F0A5F91C2000F005
:10134C00BEF900BF1037BD4680BD00BF0010024083
:10135C0080B400AF00BFFDE780B400AF00BFFDE775
:10136C0080B400AF00BFFDE780B400AF00BFFDE765
:10137C0080B400AF00BFFDE780B400AF00BFBD4636
:10138C0080BC704780B400AF00BFBD4680BC7047C6
:10139C0080B400AF00BFBD4680BC704780B500AFC5
:1013AC0000F07EF800BF80BD80B500AF024800F0B1
:1013BC00C7FF00BF80BD00BF1401002080B400AF88
:1013CC0000BFBD4680BC7047FFF7F8FF0B480C49C7
:1013DC000C4A002302E0D458C4500433C4188C4285
:1013EC00F9D3094A094C002301E013600432A242EC
:1013FC00FBD301F0EDFAFFF7EBFC70470000002087
:10140C0040000020742A0008400000200402002044
:10141C00FEE7000080B500AF084B1B68074A43F09D
:10142C0010031360032000F023F90F2000F008F8DC
:10143C00FFF738FF0023184680BD00BF0020024094
:10144C0080B582B000AF7860124B1A68124B1B78D3
:10145C0019464FF47A73B3FBF1F3B2FBF3F318466E
:10146C0000F03BF90346002B01D001230EE07B6812
:10147C000F2B0AD8002279684FF0FF3000F003F9E7
:10148C00064A7B681360002300E0012318460837E6
:10149C00BD4680BD340000203C00002038000020F8
:1014AC0080B400AF054B1B781A46054B1B681344E0
:1014BC00034A136000BFBD4680BC70473C0000204F
:1014CC000002002080B400AF024B1B681846BD46DA
:1014DC0080BC70470002002080B485B000AF7860FB
:1014EC007B6803F00703FB600C4BDB68BB60BA68DE
:1014FC004FF6FF031340BB60FB681A02BB68134333
:10150C0043F0BF6343F40033BB60044ABB68D36051
:10151C0000BF1437BD4680BC704700BF00ED00E033
:10152C0080B400AF044BDB681B0A03F007031846BA
:10153C00BD4680BC704700BF00ED00E080B483B0B6
:10154C0000AF0346FB7197F90730002B0BDBFB79DF
:10155C0003F01F02064997F907305B09012000FAD6
:10156C0002F241F8232000BF0C37BD4680BC704707
:10157C0000E100E080B483B000AF03463960FB713A
:10158C0097F90730002B0ADB3B68DAB20C4997F964
:10159C0007301201D2B20B4483F800230AE03B68F7
:1015AC00DAB20849FB7903F00F03043B1201D2B203
:1015BC000B441A7600BF0C37BD4680BC704700BF89
:1015CC0000E100E000ED00E080B489B000AFF8600D
:1015DC00B9607A60FB6803F00703FB61FB69C3F138
:1015EC000703042B28BF0423BB61FB690433062BC0
:1015FC0002D9FB69033B00E000237B614FF0FF3213
:10160C00BB6902FA03F3DA43BB681A407B699A4060
:10161C004FF0FF317B6901FA03F3D9437B680B4030
:10162C00134318462437BD4680BC704780B582B042
:10163C0000AF78607B68013BB3F1807F01D301235D
:10164C000FE00A4A7B68013B53600F214FF0FF30DB
:10165C00FFF790FF054B00229A60044B07221A609B
:10166C00002318460837BD4680BD00BF10E000E0DF
:10167C0080B582B000AF78607868FFF72DFF00BFAF
:10168C000837BD4680BD80B586B000AF0346B96053
:10169C007A60FB7300237B61FFF742FF78617A6805
:1016AC00B9687869FFF790FF024697F90F30114639
:1016BC001846FFF75FFF00BF1837BD4680BD80B5E9
:1016CC0082B000AF0346FB7197F907301846FFF75D
:1016DC0035FF00BF0837BD4680BD80B582B000AF76
:1016EC0078607868FFF7A2FF034618460837BD46B6
:1016FC0080BD000080B48BB000AF786039600023EF
:10170C007B6200233B6261E101227B6A02FA03F3F4
:10171C00FB613B681B68FA691340BB61BA69FB69E2
:10172C009A4240F050813B685B68974A93425ED086
:10173C00954A934275D8954A934258D0934A93420E
:10174C006FD8934A934252D0914A934269D8914AA6
:10175C0093424CD08F4A934263D88F4A934246D0DF
:10176C008D4A93425DD8122B2AD8122B59D801A23C
:10177C0052F823F0FB170008D5170008E7170008EC
:10178C00291800082F1800082F1800082F18000817
:10179C002F1800082F1800082F1800082F18000801
:1017AC002F1800082F1800082F1800082F180008F1
:1017BC002F1800082F180008DD170008F117000873
:1017CC00764A934213D02CE03B68DB683B6229E0FD
:1017DC003B68DB6804333B6224E03B68DB6808331E
:1017EC003B621FE03B68DB680C333B621AE03B68F2
:1017FC009B68002B02D104233B6213E03B689B687F
:10180C00012B05D108233B627B68FA691A6109E058
:10181C0008233B627B68FA695A6103E000233B6250
:10182C0000E000BFBB69FF2B01D87B6801E07B683F
:10183C0004337B61BB69FF2B02D87B6A9B0002E0FF
:10184C007B6A083B9B003B617B691A680F213B69F3
:10185C0001FA03F3DB431A40396A3B6901FA03F3DB
:10186C001A437B691A603B685B6803F08053002B5A
:10187C0000F0A9804A4B9B69494A43F001039361EC
:10188C00474B9B6903F00103BB60BB68454A7B6A0D
:10189C009B08023352F82330FB607B6A03F003038E
:1018AC009B000F2202FA03F3DB43FA681340FB6040
:1018BC007B683D4A93420DD07B683C4A934207D0EB
:1018CC007B683B4A934201D1022304E0032302E0EC
:1018DC00012300E000237A6A02F003029200934095
:1018EC00FA681343FB602F497B6A9B080233FA6842
:1018FC0041F823203B685B6803F48013002B06D06F
:10190C002C4B9A682B49BB6913438B6006E0294B1F
:10191C009A68BB69DB43274913408B603B685B6863
:10192C0003F40013002B06D0224BDA682149BB6963
:10193C001343CB6006E01F4BDA68BB69DB431D49E0
:10194C001340CB603B685B6803F40033002B06D07C
:10195C00184B5A681749BB6913434B6006E0154B8B
:10196C005A68BB69DB43134913404B603B685B68A7
:10197C0003F48033002B1FD00E4B1A680D49BB6942
:10198C0013430B601FE000BF000032100000311049
:10199C000000221000002110000012100000111095
:1019AC00001002400000014000080140000C014002
:1019BC0000100140000401400B4B1A68BB69DB436B
:1019CC00094913400B607B6A01337B623B681A68E0
:1019DC007B6A22FA03F3002B7FF496AE00BF00BFA4
:1019EC002C37BD4680BC70470004014080B485B0E4
:1019FC0000AF78600B467B807B689A687B881340CD
:101A0C00002B02D00123FB7301E00023FB73FB7B53
:101A1C0018461437BD4680BC704780B483B000AF05
:101A2C0078600B467B8013467B707B78002B03D051
:101A3C007A887B681A6103E07B881A047B681A61D8
:101A4C0000BF0C37BD4680BC7047000080B586B027
:101A5C0000AF78607B68002B01D1012372E27B68B8
:101A6C001B6803F00103002B00F08780924B5B682E
:101A7C0003F00C03042B0CD08F4B5B6803F00C03AE
:101A8C00082B12D18C4B5B6803F48033B3F5803F89
:101A9C000BD1894B1B6803F40033002B6CD07B6893
:101AAC005B68002B68D101234CE27B685B68B3F563
:101ABC00803F06D1804B1B687F4A43F48033136010
:101ACC002EE07B685B68002B0CD17B4B1B687A4A41
:101ADC0023F480331360784B1B68774A23F48023FC
:101AEC0013601DE07B685B68B3F5A02F0CD1724BC3
:101AFC001B68714A43F4802313606F4B1B686E4A5A
:101B0C0043F4803313600BE06B4B1B686A4A23F47D
:101B1C0080331360684B1B68674A23F4802313607F
:101B2C007B685B68002B13D0FFF7CCFC386108E0B6
:101B3C00FFF7C8FC02463B69D31A642B01D9032377
:101B4C0000E25D4B1B6803F40033002BF0D014E073
:101B5C00FFF7B8FC386108E0FFF7B4FC02463B69BC
:101B6C00D31A642B01D90323ECE1534B1B6803F408
:101B7C000033002BF0D100E000BF7B681B6803F042
:101B8C000203002B63D04C4B5B6803F00C03002B5F
:101B9C000BD0494B5B6803F00C03082B1CD1464B54
:101BAC005B6803F48033002B16D1434B1B6803F0A6
:101BBC000203002B05D07B681B69012B01D001238C
:101BCC00C0E13D4B1B6823F0F8027B685B69DB00CE
:101BDC00394913430B603AE07B681B69002B20D01A
:101BEC00364B01221A60FFF76DFC386108E0FFF7F5
:101BFC0069FC02463B69D31A022B01D90323A1E1EC
:101C0C002D4B1B6803F00203002BF0D02A4B1B68F2
:101C1C0023F0F8027B685B69DB00274913430B60F8
:101C2C0015E0264B00221A60FFF74CFC386108E0E7
:101C3C00FFF748FC02463B69D31A022B01D9032358
:101C4C0080E11D4B1B6803F00203002BF0D17B6875
:101C5C001B6803F00803002B3AD07B689B69002BB0
:101C6C0019D0174B01221A60FFF72CFC386108E0E1
:101C7C00FFF728FC02463B69D31A022B01D9032338
:101C8C0060E10D4B5B6A03F00203002BF0D00120E6
:101C9C0000F09CFA1CE00A4B00221A60FFF712FCC1
:101CAC0038610FE0FFF70EFC02463B69D31A022B9A
:101CBC0008D9032346E100BF001002400000424255
:101CCC0080044242924B5B6A03F00203002BE9D181
:101CDC007B681B6803F00403002B00F0A680002334
:101CEC00FB758B4BDB6903F08053002B0DD1884BBC
:101CFC00DB69874A43F08053D361854BDB6903F082
:101D0C008053BB60BB680123FB75824B1B6803F4DB
:101D1C008073002B18D17F4B1B687E4A43F4807371
:101D2C001360FFF7CFFB386108E0FFF7CBFB0246EF
:101D3C003B69D31A642B01D9032303E1754B1B6850
:101D4C0003F48073002BF0D07B68DB68012B06D189
:101D5C006F4B1B6A6E4A43F0010313622DE07B68E4
:101D6C00DB68002B0CD16A4B1B6A694A23F0010318
:101D7C001362674B1B6A664A23F0040313621CE070
:101D8C007B68DB68052B0CD1614B1B6A604A43F006
:101D9C00040313625E4B1B6A5D4A43F0010313623A
:101DAC000BE05B4B1B6A5A4A23F001031362584B3E
:101DBC001B6A574A23F0040313627B68DB68002B11
:101DCC0015D0FFF77FFB38610AE0FFF77BFB02467B
:101DDC003B69D31A41F28832934201D90323B1E013
:101DEC004B4B1B6A03F00203002BEED014E0FFF701
:101DFC0069FB38610AE0FFF765FB02463B69D31AC1
:101E0C0041F28832934201D903239BE0404B1B6A79
:101E1C0003F00203002BEED1FB7D012B05D13C4BD3
:101E2C00DB693B4A23F08053D3617B68DB69002B71
:101E3C0000F08780364B5B6803F00C03082B61D0F5
:101E4C007B68DB69022B46D1334B00221A60FFF70B
:101E5C0039FB386108E0FFF735FB02463B69D31AC2
:101E6C00022B01D903236DE0294B1B6803F000738F
:101E7C00002BF0D17B681B6AB3F5803F08D1244B53
:101E8C005B6823F400327B689B68214913434B60E9
:101E9C001F4B5B6823F474127B68196A7B685B6A5E
:101EAC000B431B4913434B601B4B01221A60FFF77A
:101EBC0009FB386108E0FFF705FB02463B69D31AC2
:101ECC00022B01D903233DE0114B1B6803F0007377
:101EDC00002BF0D035E0104B00221A60FFF7F2FA1D
:101EEC00386108E0FFF7EEFA02463B69D31A022B81
:101EFC0001D9032326E0064B1B6803F00073002B6B
:101F0C00F0D11EE07B68DB69012B07D1012319E0BE
:101F1C000010024000700040600042420B4B5B68B6
:101F2C00FB60FB6803F480327B681B6A9A4206D123
:101F3C00FB6803F470127B685B6A9A4201D0012340
:101F4C0000E0002318461837BD4680BD0010024043
:101F5C0080B584B000AF786039607B68002B01D10C
:101F6C000123D0E06A4B1B6803F007033A689A42DE
:101F7C0010D9674B1B6823F0070265493B68134374
:101F8C000B60634B1B6803F007033A689A4201D05D
:101F9C000123B8E07B681B6803F00203002B20D000
:101FAC007B681B6803F00403002B05D0594B5B685E
:101FBC00584A43F4E06353607B681B6803F00803E2
:101FCC00002B05D0534B5B68524A43F4605353606B
:101FDC00504B5B6823F0F0027B689B684D491343C0
:101FEC004B607B681B6803F00103002B40D07B68BF
:101FFC005B68012B07D1474B1B6803F40033002BA4
:10200C0015D101237FE07B685B68022B07D1414B24
:10201C001B6803F00073002B09D1012373E03D4BC7
:10202C001B6803F00203002B01D101236BE0394B39
:10203C005B6823F003027B685B68364913434B6093
:10204C00FFF740FAF8600AE0FFF73CFA0246FB683B
:10205C00D31A41F28832934201D9032353E02D4B1A
:10206C005B6803F00C027B685B689B009A42EBD1C7
:10207C00274B1B6803F007033A689A4210D2244B93
:10208C001B6823F0070222493B6813430B60204B6B
:10209C001B6803F007033A689A4201D0012332E02F
:1020AC007B681B6803F00403002B08D0194B5B689A
:1020BC0023F4E0627B68DB68164913434B607B6852
:1020CC001B6803F00803002B09D0124B5B6823F448
:1020DC0060527B681B69DB000E4913434B6000F0B8
:1020EC0021F802460B4B5B681B0903F00F030A49EE
:1020FC00CB5C22FA03F3094A1360094B1B681846A0
:10210C00FFF79EF9002318461037BD4680BD00BF6F
:10211C000020024000100240482A00083400002031
:10212C003800002080B487B000AF0023FB60002390
:10213C00BB6000237B6100237B6000233B611E4B53
:10214C005B68FB60FB6803F00C03042B02D0082BCC
:10215C0003D027E0194B3B6127E0FB689B0C03F095
:10216C000F03174AD35C7B60FB6803F48033002BAE
:10217C0010D0114B5B685B0C03F00103114AD35C6C
:10218C00BB607B680D4A03FB02F2BB68B2FBF3F346
:10219C007B6104E07B680C4A02FB03F37B617B6987
:1021AC003B6102E0054B3B6100BF3B6918461C37A5
:1021BC00BD4680BC704700BF0010024000127A0080
:1021CC00582A0008682A000800093D0080B485B030
:1021DC0000AF78600A4B1B680A4AA2FB03235B0A18
:1021EC007A6802FB03F3FB6000BFFB685A1EFA60BF
:1021FC00002BF9D100BF00BF1437BD4680BC70471F
:10220C0034000020D34D621080B582B000AF7860EE
:10221C007B68002B01D1012341E07B6893F83D30B2
:10222C00DBB2002B06D17B68002283F83C20786857
:10223C00FFF76AF87B68022283F83D207B681A68F6
:10224C007B6804331946104600F056FA7B6801226D
:10225C0083F846207B68012283F83E207B680122AC
:10226C0083F83F207B68012283F840207B680122A1
:10227C0083F841207B68012283F842207B6801228D
:10228C0083F843207B68012283F844207B68012279
:10229C0083F845207B68012283F83D2000231846F3
:1022AC000837BD4680BD000080B485B000AF7860B3
:1022BC007B6893F83D30DBB2012B01D0012335E074
:1022CC007B68022283F83D207B681B68DA687B6898
:1022DC001B6842F00102DA607B681B68164A934265
:1022EC0009D07B681B68B3F1804F04D07B681B68F6
:1022FC00124A934211D17B681B689B6803F0070359
:10230C00FB60FB68062B10D07B681B681A687B6827
:10231C001B6842F001021A6007E07B681B681A68B0
:10232C007B681B6842F001021A60002318461437C0
:10233C00BD4680BC704700BF002C0140000400402B
:10234C0080B584B000AF78607B681B68DB68FB608D
:10235C007B681B681B69BB60BB6803F00203002B26
:10236C0020D0FB6803F00203002B1BD07B681B689A
:10237C006FF002021A617B6801221A777B681B6876
:10238C009B6903F00303002B03D0786800F098F9E5
:10239C0005E0786800F08BF9786800F09AF97B68B2
:1023AC0000221A77BB6803F00403002B20D0FB68D3
:1023BC0003F00403002B1BD07B681B686FF0040236
:1023CC001A617B6802221A777B681B689B6903F48D
:1023DC004073002B03D0786800F072F905E0786840
:1023EC0000F065F9786800F074F97B6800221A77C0
:1023FC00BB6803F00803002B20D0FB6803F0080334
:10240C00002B1BD07B681B686FF008021A617B687D
:10241C0004221A777B681B68DB6903F00303002B2B
:10242C0003D0786800F04CF905E0786800F03FF9CB
:10243C00786800F04EF97B6800221A77BB6803F0CD
:10244C001003002B20D0FB6803F01003002B1BD0D3
:10245C007B681B686FF010021A617B6808221A7780
:10246C007B681B68DB6903F44073002B03D078682E
:10247C0000F026F905E0786800F019F9786800F0AA
:10248C0028F97B6800221A77BB6803F00103002B44
:10249C000CD0FB6803F00103002B07D07B681B6892
:1024AC006FF001021A617868FEF7E8FDBB6803F073
:1024BC008003002B0CD0FB6803F08003002B07D0AB
:1024CC007B681B686FF080021A61786800F06FFA05
:1024DC00BB6803F04003002B0CD0FB6803F04003F7
:1024EC00002B07D07B681B686FF040021A6178687C
:1024FC0000F0F8F8BB6803F02003002B0CD0FB684D
:10250C0003F02003002B07D07B681B686FF02002C0
:10251C001A61786800F042FA00BF1037BD4680BDE2
:10252C0080B584B000AF786039600023FB737B68A2
:10253C0093F83C30012B01D10223B4E07B680122DB
:10254C0083F83C207B68022283F83D207B681B6863
:10255C009B68BB60BB6823F07703BB60BB6823F44C
:10256C007F43BB607B681B68BA689A603B681B68DA
:10257C00B3F5005F3ED0B3F5005F00F28780B3F592
:10258C00805F00F08680B3F5805F7FD8702B1AD007
:10259C00702B7BD8602B50D0602B77D8502B3CD035
:1025AC00502B73D8402B58D0402B6FD8302B64D085
:1025BC00302B6BD8202B60D0202B67D8002B5CD015
:1025CC00102B5AD062E07B6818683B6899683B68AE
:1025DC005A683B68DB6800F06AF97B681B689B688B
:1025EC00BB60BB6843F07703BB607B681B68BA6851
:1025FC009A604FE07B6818683B6899683B685A683A
:10260C003B68DB6800F053F97B681B689A687B6851
:10261C001B6842F480429A603CE07B6818683B6817
:10262C0059683B68DB681A4600F0CAF87B681B687F
:10263C005021184600F021F92CE07B6818683B68A3
:10264C0059683B68DB681A4600F0E8F87B681B6841
:10265C006021184600F011F91CE07B6818683B6893
:10266C0059683B68DB681A4600F0AAF87B681B685F
:10267C004021184600F001F90CE07B681A683B68B1
:10268C001B681946104600F0F8F803E00123FB73B1
:10269C0000E000BF7B68012283F83D207B680022AC
:1026AC0083F83C20FB7B18461037BD4680BD80B4B8
:1026BC0083B000AF786000BF0C37BD4680BC70475C
:1026CC0080B483B000AF786000BF0C37BD4680BCCF
:1026DC00704780B483B000AF786000BF0C37BD4644
:1026EC0080BC704780B483B000AF786000BF0C37FB
:1026FC00BD4680BC7047000080B485B000AF7860E8
:10270C0039607B681B68FB607B682B4A934207D05F
:10271C007B68B3F1804F03D07B68284A934208D181
:10272C00FB6823F07003FB603B685B68FA6813433B
:10273C00FB607B68204A934207D07B68B3F1804FE3
:10274C0003D07B681D4A934208D1FB6823F4407385
:10275C00FB603B68DB68FA681343FB60FB6823F0A3
:10276C0080023B685B691343FB607B68FA681A6004
:10277C003B689A687B68DA623B681A687B689A6285
:10278C007B680D4A934203D13B681A697B681A63D4
:10279C007B6801225A617B681B6903F00103002BE3
:1027AC0005D07B681B6923F001027B681A6100BFAE
:1027BC001437BD4680BC7047002C0140000400401B
:1027CC0080B487B000AFF860B9607A60FB681B6AB0
:1027DC007B61FB681B6A23F00102FB681A62FB68D1
:1027EC009B693B613B6923F0F0033B617B681B01F8
:1027FC003A6913433B617B6923F00A037B617A6975
:10280C00BB6813437B61FB683A699A61FB687A6920
:10281C001A6200BF1C37BD4680BC704780B487B0BD
:10282C0000AFF860B9607A60FB681B6A7B61FB687B
:10283C001B6A23F01002FB681A62FB689B693B6100
:10284C003B6923F470433B617B681B033A69134378
:10285C003B617B6923F0A0037B61BB681B017A6938
:10286C0013437B61FB683A699A61FB687A691A6267
:10287C0000BF1C37BD4680BC704780B485B000AF2C
:10288C00786039607B689B68FB60FB6823F07003A1
:10289C00FB603A68FB68134343F00703FB607B68FB
:1028AC00FA689A6000BF1437BD4680BC704780B48C
:1028BC0087B000AFF860B9607A603B60FB689B68DA
:1028CC007B617B6923F47F437B613B681A027B68E5
:1028DC001A43BB6813437A6913437B61FB687A69BB
:1028EC009A6000BF1C37BD4680BC704780B485B071
:1028FC0000AF786039607B6893F83C30012B01D1D4
:10290C00022341E07B68012283F83C207B68022291
:10291C0083F83D207B681B685B68FB607B681B68E9
:10292C009B68BB60FB6823F07003FB603B681B6813
:10293C00FA681343FB607B681B68FA685A607B6813
:10294C001B68144A934209D07B681B68B3F1804F13
:10295C0004D07B681B68104A93420CD1BB6823F0EF
:10296C008003BB603B685B68BA681343BB607B68E1
:10297C001B68BA689A607B68012283F83D207B68EB
:10298C00002283F83C20002318461437BD4680BC37
:10299C00704700BF002C01400004004080B483B09D
:1029AC0000AF786000BF0C37BD4680BC704780B468
:1029BC0083B000AF786000BF0C37BD4680BC704759
:1029CC0003460244934200D1704703F8011BF9E718
:1029DC0070B500260C4D0D4C641BA410A64209D1F9
:1029EC0000F01AF800260A4D0A4C641BA410A642EB
:1029FC0005D170BD55F8043B98470136EEE755F804
:102A0C00043B98470136F2E76C2A00086C2A000850
:102A1C006C2A0008702A0008F8B500BFF8BC08BC86
:102A2C009E467047F8B500BFF8BC08BC9E46704780
:102A3C00C0F9A4B0999282F88090000000000000C8
:102A4C000000000001020304060708090203040544
:102A5C00060708090A0B0C0D0E0F101001020000DE
:042A6C00310100082C
:042A70000D0100084C
:102A74000100000000000000000000000000000051
:102A84000000000001000000050000000300000039
:102A94000500000002000000030000000100000027
:102AA4000100000000127A00100000000100000084
:04000005080013D507
:00000001FF
